:040000006FC040513C
:100004000000000000000000BAC40000BCC40000EE
:1000140000000000BEC4000000000000000000005A
:10002400C0C40000C2C400000000000000000000C2
:10003400D28C00000000000094C300000000000007
:10004400C8C40000CAC40000CCC400000000000002
:10005400CEC40000D0C40000D2C40000D4C4000048
:10006400D6C40000D8C40000DAC40000DCC4000018
:10007400DEC40000E0C40000E2C40000E4C40000E8
:10008400E6C40000E8C40000EAC40000ECC40000B8
:10009400EEC40000F0C40000F2C40000F4C4000088
:1000A400F6C40000F8C40000FAC40000FCC4000058
:1000B400FEC4000000C5000002C5000004C5000025
:1000C40006C5000008C500000AC500000CC50000F4
:1000D4000EC5000010C5000012C50000000000009D
:1000E400000000000000000000000000000000000C
:0C00F40000000000000000000000000000
:10010000011122CE0010F32700302326F4FE8327AE
:10011000C4FE3E85724405618280011122CE00102A
:100120002326A4FE8327C4FE739007300100724487
:1001300005618280011122CE0010F32710302326A2
:10014000F4FE8327C4FE3E8572440561828001115E
:1001500022CE00102326A4FE8327C4FE73901730FE
:100160000100724405618280011122CE0010F32744
:1001700050302326F4FE8327C4FE3E857244056179
:100180008280011122CE00102326A4FE8327C4FE04
:10019000739057300100724405618280011122CEB4
:1001A0000010F32700342326F4FE8327C4FE3E8587
:1001B000724405618280011122CE00102326A4FE24
:1001C0008327C4FE73900734010072440561828066
:1001D000011122CE0010F32710342326F4FE8327CA
:1001E000C4FE3E85724405618280011122CE00105A
:1001F0002326A4FE8327C4FE7390173401007244A3
:1002000005618280011122CE0010F32720342326BD
:10021000F4FE8327C4FE3E8572440561828001118D
:1002200022CE00102326A4FE8327C4FE7390273419
:100230000100724405618280011122CE0010F32773
:1002400030342326F4FE8327C4FE3E8572440561C4
:100250008280011122CE00102326A4FE8327C4FE33
:10026000739037340100724405618280011122CEFF
:100270000010F32710F12326F4FE8327C4FE3E85E9
:10028000724405618280011122CE0010F32720F113
:100290002326F4FE8327C4FE3E85724405618280D6
:1002A000011122CE0010F32730F12326F4FE83271C
:1002B000C4FE3E85724405618280011122CE001089
:1002C000F32740F12326F4FE8327C4FE3E857244C3
:1002D00005618280011122CE00108A872326F4FE58
:1002E0008327C4FE3E85724405618280411106C6A3
:1002F00022C40008B71702409843B717024013679B
:10030000170098C3B7170240D843B71702401367C6
:100310000705D8C3B7170240D443B71702403707C1
:1003200000F91307F7F5758FD8C379200100B240A3
:10033000224441018280011122CE0010232604FEB6
:10034000B70700203777DC02130707C023A0E702B6
:10035000B7170240DC43918313F7F700B70700207B
:1003600093870700BA9783C7070093F7F70F2326F1
:10037000F4FEB7170240DC4393F7070891EFB70785
:10038000002003A707028327C4FE3357F702B707ED
:10039000002023A0E70229A8B707002003A707022F
:1003A0008327C4FE3357F700B707002023A0E702D6
:1003B0000100724405618280411106C622C4000812
:1003C00031200100B240224441018280411122C605
:1003D0000008B72702409843B7270240719B98C393
:1003E000B72702409843B72702401367270098C3F6
:1003F000B7170240D843B71702401377F7F0D8C3B6
:1004000037170240B71702405843D8C3010032449F
:1004100041018280011106CE22CC00102326A4FEC9
:100420000327C4FEB727014093870740631CF700EA
:10043000854513050020EF404075814513050020D8
:10044000EF40A0740100F24062440561828079713E
:1004500022D60018232EA4FC232CB4FC232604FE51
:10046000A30504FE8327C4FDDC432326F4FE0327F3
:10047000C4FEB707F1E09387F7EFF98F2326F4FE68
:10048000832784FD9843832784FD9C4F5D8F8327BA
:1004900084FDDC4F5D8F832784FDDC43A207D98F69
:1004A0000327C4FED98F2326F4FE8327C4FD032728
:1004B000C4FED8C38327C4FD9C472326F4FE03272C
:1004C000C4FEB7F7F1FF9387D77FF98F2326F4FE99
:1004D000832784FD984B832784FDDC475D8F83272A
:1004E00084FD9C478607D98F0327C4FED98F232616
:1004F000F4FE8327C4FD0327C4FE98C78327C4FDE9
:10050000DC572326F4FE0327C4FEB70710FFFD17B0
:10051000F98F2326F4FE832784FD83C74701FD1747
:1005200013F7F70F8347B4FED98FA305F4FE834773
:10053000B4FED2070327C4FED98F2326F4FE8327F7
:10054000C4FD0327C4FED8D7010032544561828020
:10055000011122CE00102326A4FE8327C4FE23A06F
:1005600007008327C4FE23A207008327C4FE23A419
:1005700007008327C4FE37070200D8C78327C4FEBD
:1005800023A807008327C4FE0547238AE70001004C
:10059000724405618280011122CE00102326A4FE40
:1005A0002324B4FE832784FE91CB8327C4FE9C477B
:1005B00013E717008327C4FE98C709A88327C4FE42
:1005C0009C4713F7E7FF8327C4FE98C701007244D6
:1005D00005618280011122CE00102326A4FE23246F
:1005E000B4FE832784FE91CB8327C4FE9C4713E788
:1005F00007108327C4FE98C709A88327C4FE9C4719
:1006000013F7F7EF8327C4FE98C701007244056112
:100610008280797122D60018232EA4FCAE87232A6B
:10062000C4FC231DF4FCA30704FE8357A4FDA30709
:10063000F4FE832744FD99CB8327C4FDD843834729
:10064000F4FE5D8F8327C4FDD8C321A88327C4FD92
:10065000D8438347F4FE93C7F7FF7D8F8327C4FDFC
:10066000D8C30100325445618280011122CE0010AE
:100670002326A4FE2324B4FE832784FE99CB83275C
:10068000C4FE9847B70750005D8F8327C4FE98C704
:1006900019A88327C4FE9847B707B0FFFD177D8FC1
:1006A0008327C4FE98C70100724405618280797176
:1006B00022D60018232EA4FC232604FE8327C4FD83
:1006C0009847B7074000F98F89C785472326F4FE6E
:1006D00019A0232604FE8327C4FE3E8532544561BB
:1006E0008280797122D60018232EA4FCAE87A30D38
:1006F000F4FC232604FE232404FE8327C4FDDC43EC
:100700002326F4FE0327C4FEC977FD17F98F23269D
:10071000F4FE8347B4FDFD172324F4FE832784FEF3
:10072000B6070327C4FED98F2326F4FE8327C4FD12
:100730000327C4FED8C301003254456182800111F1
:1007400022CE00102326A4FE2324B4FE832784FE99
:1007500081CF8327C4FED8438567938707805D8F49
:100760008327C4FED8C319A88327C4FED843FD77C6
:100770009387F77F7D8F8327C4FED8C3010072441F
:1007800005618280797122D60018232EA4FCAE87E1
:100790003687A30DF4FCB287230DF4FCBA87A30CB3
:1007A000F4FC232604FE232404FE0347B4FDA547DE
:1007B00063F6E7068327C4FDDC472326F4FE834760
:1007C000B4FD138767FFBA878607BA971D47B3172B
:1007D000F7002324F4FE832784FE93C7F7FF032743
:1007E000C4FEF98F2326F4FE834694FD8347B4FDAF
:1007F000138767FFBA878607BA97B397F600232453
:10080000F4FE0327C4FE832784FED98F2326F4FE3B
:100810008327C4FD0327C4FED8C785A08327C4FD52
:100820009C4B2326F4FE0347B4FDBA878607BA978C
:100830001D47B317F7002324F4FE832784FE93C7D4
:10084000F7FF0327C4FEF98F2326F4FE834694FDA9
:100850000347B4FDBA878607BA97B397F6002324F7
:10086000F4FE0327C4FE832784FED98F2326F4FEDB
:100870008327C4FD0327C4FE98CB0347A4FD9947F3
:1008800063E6E7068327C4FDDC5B2326F4FE83478B
:10089000A4FD1387F7FFBA878A07BA977D47B31776
:1008A000F7002324F4FE832784FE93C7F7FF032772
:1008B000C4FEF98F2326F4FE8346B4FD8347A4FDCE
:1008C0001387F7FFBA878A07BA97B397F6002324EE
:1008D000F4FE0327C4FE832784FED98F2326F4FE6B
:1008E0008327C4FD0327C4FED8DBE9A80347A4FD82
:1008F000B14763E6E7068327C4FD9C5B2326F4FE2D
:100900008347A4FD138797FFBA878A07BA977D4765
:10091000B317F7002324F4FE832784FE93C7F7FF61
:100920000327C4FEF98F2326F4FE8346B4FD8347D4
:10093000A4FD138797FFBA878A07BA97B397F60083
:100940002324F4FE0327C4FE832784FED98F2326A5
:10095000F4FE8327C4FD0327C4FE98DBA5A08327EC
:10096000C4FDDC572326F4FE8347A4FD138737FF1D
:10097000BA878A07BA977D47B317F7002324F4FE96
:10098000832784FE93C7F7FF0327C4FEF98F23262E
:10099000F4FE8346B4FD8347A4FD138737FFBA876F
:1009A0008A07BA97B397F6002324F4FE0327C4FE00
:1009B000832784FED98F2326F4FE8327C4FD0327D3
:1009C000C4FED8D70100325445618280011122CE85
:1009D00000102326A4FE2324B4FE832784FE99CB93
:1009E0008327C4FE9847B70710005D8F8327C4FE96
:1009F00098C719A88327C4FE9847B707F0FFFD17CB
:100A00007D8F8327C4FE98C70100724405618280F0
:100A1000011122CE00102326A4FE8327C4FEFC472A
:100A2000C207C1833E85724405618280411122C69E
:100A30000008B72701409387C7449C433E85324452
:100A400041018280011122CE00102326A4FE23241E
:100A5000B4FE832784FE91CB8327C4FEDC4313E7D7
:100A600007408327C4FED8C309A88327C4FEDC43FC
:100A700013F7F7BF8327C4FED8C301007244056192
:100A80008280011122CE00102326A4FE2324B4FE6E
:100A9000832784FE91CB8327C4FED84385675D8F6F
:100AA0008327C4FED8C311A88327C4FED843FD778B
:100AB000FD177D8F8327C4FED8C3010072440561F2
:100AC0008280797122D60018232EA4FC232CB4FC3A
:100AD000232604FE8327C4FD9C472326F4FE032718
:100AE000C4FEE577FD17F98F2326F4FE0327C4FE25
:100AF000832784FDD98F2326F4FE8327C4FD032793
:100B0000C4FE98C70100325445618280011122CE93
:100B100000102326A4FE2324B4FE832784FE91CB59
:100B20008327C4FE9847A1675D8F8327C4FE98C7BB
:100B300011A88327C4FE9847E177FD177D8F83278F
:100B4000C4FE98C70100724405618280011122CE63
:100B500000102326A4FE2324B4FE832784FE99CB11
:100B60008327C4FE9847B78720005D8F8327C4FE84
:100B700098C719A88327C4FE9847B787DFFFFD17DA
:100B80007D8F8327C4FE98C701007244056182806F
:100B9000797122D60018232EA4FC232604FE832775
:100BA000C4FD9847B7072000F98F89C785472326DA
:100BB000F4FE19A0232604FE8327C4FE3E8532548A
:100BC00045618280797122D60018232EA4FCAE875D
:100BD0003687A30DF4FCB287230DF4FCBA87A30C6F
:100BE000F4FC232604FE232404FE232204FE0347F0
:100BF000B4FDA54763F6E7068327C4FDDC4723263B
:100C0000F4FE8347B4FD138767FFBA878607BA9758
:100C10001D47B317F7002324F4FE832784FE93C7F0
:100C2000F7FF0327C4FEF98F2326F4FE834694FDC5
:100C30008347B4FD138767FFBA878607BA97B397D0
:100C4000F6002324F4FE0327C4FE832784FED98FF5
:100C50002326F4FE8327C4FD0327C4FED8C785A03E
:100C60008327C4FD9C4B2326F4FE0347B4FDBA87BB
:100C70008607BA971D47B317F7002324F4FE83278E
:100C800084FE93C7F7FF0327C4FEF98F2326F4FEE3
:100C9000834694FD0347B4FDBA878607BA97B39796
:100CA000F6002324F4FE0327C4FE832784FED98F95
:100CB0002326F4FE8327C4FD0327C4FE98CB832795
:100CC000C4FD9C5F2326F4FE8327C4FED1838D8B55
:100CD0002322F4FE832744FE93F7F70F0347A4FD76
:100CE000B307F74093F7F70F890793F7F70F3E879E
:100CF000BA878A07BA977D47B317F7002324F4FE13
:100D0000832784FE93C7F7FF0327C4FEF98F2326AA
:100D1000F4FE0347B4FD832744FE93F7F70F8346A1
:100D2000A4FDB387F64093F7F70F890793F7F70F02
:100D3000BE86B6878A07B697B317F7002324F4FE5A
:100D40000327C4FE832784FED98F2326F4FE83273E
:100D5000C4FD0327C4FE98DF010032544561828040
:100D6000797122D60018232EA4FCAE87A30DF4FCC3
:100D7000232604FE232404FE8327C4FD9C5F232630
:100D8000F4FE0327C4FEB707D0FFFD17F98F232613
:100D9000F4FE8347B4FDFD172324F4FE832784FE6D
:100DA000D2070327C4FED98F2326F4FE8327C4FD70
:100DB0000327C4FE98DF01003254456182807971B7
:100DC00022D60018232EA4FCAE873287A30DF4FC94
:100DD000BA87231CF4FC232604FE8327C4FD2326A4
:100DE000F4FE0347B4FD8327C4FEBA972326F4FE1E
:100DF0008327C4FE3E87835784FD1CC30100325401
:100E000045618280797122D60018232EA4FCAE871A
:100E1000A30DF4FC232604FE8327C4FD2326F4FE41
:100E20000347B4FD8327C4FEBA979387870223261E
:100E3000F4FE8327C4FE9C43C207C1833E8532541F
:100E400045618280797122D60018232EA4FC232CC0
:100E5000B4FC232604FE8327C4FDDC432326F4FED2
:100E60000327C4FEB70740FF9387F7DFF98F2326D8
:100E7000F4FE0327C4FE832784FDD98F2326F4FEC6
:100E80008327C4FD0327C4FED8C301003254456143
:100E90008280011122CE00102326A4FEAE87328765
:100EA0002315F4FEBA872314F4FE0357A4FE832708
:100EB000C4FED8D3035784FE8327C4FE98D701000D
:100EC000724405618280011122CE00102326A4FE07
:100ED000AE8732872315F4FEBA872314F4FE8357B6
:100EE000A4FE139707018327C4FEF8CB8327C4FE13
:100EF000F84B835784FE5D8F8327C4FEF8CB010037
:100F0000724405618280011122CE00102326A4FEC6
:100F1000AE8732872315F4FEBA872314F4FE835775
:100F2000A4FE139707018327C4FEB8CF8327C4FE0E
:100F3000B84F835784FE5D8F8327C4FEB8CF01006E
:100F4000724405618280011122CE00102326A4FE86
:100F5000AE8732872315F4FEBA872314F4FE835735
:100F6000A4FE139707018327C4FEF8CF8327C4FE8E
:100F7000F84F835784FE5D8F8327C4FEF8CF0100AE
:100F8000724405618280797122D60018232EA4FC58
:100F9000AE87A30DF4FC232604FE8327C4FDDC43A7
:100FA0002326F4FE8327C4FE819B2326F4FE834779
:100FB000B4FD0327C4FED98F2326F4FE8327C4FD86
:100FC0000327C4FED8C30100325445618280797181
:100FD00022D60018232EA4FCAE87A30DF4FC2326F2
:100FE00004FE8327C4FD98438347B4FDF98F89C766
:100FF00085472326F4FE19A0232604FE8327C4FE7A
:101000003E85325445618280011122CE0010232694
:10101000A4FEAE87A305F4FE8347B4FE13C7F7FF13
:101020008327C4FE98C301007244056182807971F0
:1010300022D60018232EA4FCAE87231DF4FC232601
:1010400004FE232404FE232204FE8357A4FDA1836F
:10105000C207C1832324F4FE8327C4FDDC43035766
:10106000A4FD1377F70FF98F2322F4FE8327C4FD25
:101070009843832784FEF98F81CB832744FE89C759
:1010800085472326F4FE19A0232604FE8327C4FEE9
:101090003E85325445618280797122D60018232E14
:1010A000A4FCAE87231DF4FCA30704FE8357A4FD14
:1010B000A183C207C183A307F4FE8347F4FE13C7CD
:1010C000F7FF8327C4FD98C3010032544561828035
:1010D000011122CE00102326A4FE2324B4FE2322D5
:1010E000C4FE832744FE99CB8327C4FEB84B8327D5
:1010F00084FE5D8F8327C4FEB8CB21A88327C4FE5E
:10110000B84B832784FE93C7F7FF7D8F8327C4FEE8
:10111000B8CB0100724405618280011122CE00101B
:101120002326A4FE2324B4FE832784FE91CB8327A9
:10113000C4FEBC4B13E707208327C4FEB8CB09A825
:101140008327C4FEBC4B13F7F7DF8327C4FEB8CB5D
:101150000100724405618280797122D60018232E25
:10116000A4FC232CB4FC232604FE8327C4FDBC4B23
:101170002326F4FE8327C4FE93F707E02326F4FE1C
:101180000327C4FE832784FDD98F2326F4FE8327FB
:10119000C4FD0327C4FEB8CB0100325445618280F0
:1011A000011122CE00102326A4FE8327C4FE91CF76
:1011B000B7670240938707409843B7670240938719
:1011C00007401367270098C321A8B7670240938799
:1011D00007409843B767024093870740759B98C3C1
:1011E0000100724405618280797122D60018232E95
:1011F000A4FC232604FEB7670240938707409C4760
:10120000C19B2326F4FE0327C4FE8327C4FDD98F88
:101210002326F4FEB7670240938707400327C4FEE6
:1012200098C70100325445618280797122D6001836
:10123000AA87A30FF4FC232604FEB7670240938716
:101240000740DC4393F707FC2326F4FE0347F4FD35
:101250008327C4FED98F2326F4FEB7670240938705
:1012600007400327C4FED8C3010032544561828081
:10127000411122C60008B7F7FF1F938747709C43B0
:10128000C1833E85324441018280411122C600085B
:10129000B7F7FF1F938747709843C167FD17F98F12
:1012A0003E85324441018280011122CE0010F32795
:1012B000007C2326F4FE8327C4FE3E85724405612C
:1012C0008280011122CE00102326A4FE8327C4FEB3
:1012D0007390077C0100724405618280797106D6A3
:1012E00022D40018232EA4FC232CB4FC832784FDD5
:1012F00089C70325C4FDF13705A07D372326A4FE49
:101300008327C4FD93C7F7FF0327C4FEF98F232665
:10131000F4FE0325C4FE75370100B2502254456126
:101320008280411122C60008B7F7FF1F93874770DC
:101330009C433E85324441018280011122CE00103F
:101340002326A4FE8327C4FE9843C167F9177D8F27
:101350008327C4FE98C38327C4FE23A007008327E6
:10136000C4FE23A207008327C4FE23A4070083270B
:10137000C4FE23A607000327C4FEB7070240A10747
:10138000631BF700B7070240D843B7070240136753
:10139000F700D8C3E5A80327C4FEB7070240F1074A
:1013A000631BF700B7070240D843B7070240136733
:1013B000070FD8C3E1A80327C4FEB70702409387ED
:1013C0000703631DF700B7070240D443B707024085
:1013D0000567130707F0558FD8C34DA80327C4FE30
:1013E000B707024093874704631BF700B707024023
:1013F000D443B70702403D67558FD8C341A80327A0
:10140000C4FEB707024093878705631CF700B70740
:101410000240D443B707024037070F00558FD8C3A7
:10142000B5A00327C4FEB70702409387C706631C15
:10143000F700B7070240D443B70702403707F00070
:10144000558FD8C3A1A00327C4FEB70702409387D6
:101450000708631CF700B7070240D443B7070240F0
:101460003707000F558FD8C315A00327C4FEB70751
:10147000024093874709631BF700B7070240D44334
:10148000B7070240370700F0558FD8C301007244F8
:1014900005618280797122D60018232EA4FC232CAA
:1014A000B4FC232604FE8327C4FD9C432326F4FEBC
:1014B0000327C4FEE177BD07F98F2326F4FE8327B7
:1014C00084FD9847832784FD9C535D8F832784FD8B
:1014D0009C4B5D8F832784FDDC4B5D8F832784FDD0
:1014E0009C4F5D8F832784FDDC4F5D8F832784FDB8
:1014F000DC535D8F832784FD9C57D98F0327C4FE5F
:10150000D98F2326F4FE8327C4FD0327C4FE98C386
:10151000832784FDD8478327C4FDD8C3832784FD50
:1015200098438327C4FD98C7832784FDD843832726
:10153000C4FDD8C70100325445618280011122CE1A
:1015400000102326A4FE8327C4FE23A007008327C0
:10155000C4FE23A207008327C4FE23A40700832719
:10156000C4FE23A607008327C4FE23A80700832701
:10157000C4FE23AA07008327C4FE23AC07008327E9
:10158000C4FE23AE07008327C4FE23A007028327DF
:10159000C4FE23A207028327C4FE23A4070201007E
:1015A000724405618280011122CE00102326A4FE20
:1015B0002324B4FE832784FE91CB8327C4FE9C435F
:1015C00013E717008327C4FE98C311A88327C4FE1E
:1015D0009843C167F9177D8F8327C4FE98C3010024
:1015E000724405618280011122CE00102326A4FEE0
:1015F0002324B4FE2322C4FE832744FE99CB8327F1
:10160000C4FE9843832784FE5D8F8327C4FE98C35E
:1016100021A88327C4FE9843832784FE93C7F7FF3E
:101620007D8F8327C4FE98C30100724405618280C8
:10163000011122CE00102326A4FEAE872315F4FE4E
:101640000357A4FE8327C4FED8C30100724405617A
:101650008280011122CE00102326A4FE8327C4FE1F
:10166000DC43C207C1833E85724405618280797183
:1016700022D60018232EA4FC232604FE232404FED5
:10168000B70702409C432324F4FE032784FE8327EC
:10169000C4FDF98F89C785472326F4FE19A02326A8
:1016A00004FE8327C4FE3E853254456182800111C9
:1016B00022CE00102326A4FEB70702400327C4FE53
:1016C000D8C30100724405618280797122D6001866
:1016D000232EA4FC232604FE232404FEB707024085
:1016E0009C432324F4FE032784FE8327C4FDF98F43
:1016F00089C785472326F4FE19A0232604FE8327E5
:10170000C4FE3E85325445618280011122CE001014
:101710002326A4FEB70702400327C4FED8C3010056
:10172000724405618280411122C60008B70701405A
:101730009387074023A00700B7070140938707401E
:1017400023A20700B70701409387074023A407009F
:10175000B70701409387074023A60700B70701405A
:1017600093870740370710007D17D8CB010032441C
:1017700041018280797122D60018232EA4FC2326F1
:1017800004FEB7070140938707402326F4FE832712
:10179000C4FDDC4763800712B70701409387074009
:1017A00094438327C4FD9C4313C7F7FFB707014049
:1017B00093870740758F98C3B70701409387074009
:1017C000D4438327C4FD9C4313C7F7FFB7070140E9
:1017D00093870740758FD8C38327C4FDDC43032755
:1017E000C4FEBA972326F4FE8327C4FE94438327BE
:1017F000C4FD98438327C4FE558F98C3B7070140A3
:101800009387074094478327C4FD9C4313C7F7FF82
:10181000B707014093870740758F98C7B707014006
:1018200093870740D4478327C4FD9C4313C7F7FF22
:10183000B707014093870740758FD8C78327C4FD3A
:101840009847C147631FF702B707014093870740D6
:1018500094478327C4FD9843B70701409387074007
:10186000558F98C7B707014093870740D447832710
:10187000C4FD9843B707014093870740558FD8C7E9
:10188000B1A8B7070140938707402326F4FE8327BA
:10189000C4FD9C470327C4FEBA972326F4FE832782
:1018A000C4FE94438327C4FD98438327C4FE558F09
:1018B00098C32DA08327C4FDDC430327C4FEBA9739
:1018C0002326F4FE8327C4FE94438327C4FD9C4350
:1018D00013C7F7FF8327C4FE758F98C301003254E6
:1018E00045618280011122CE00102326A4FE8327A9
:1018F000C4FE23A007008327C4FE23A2070083277A
:10190000C4FE314798C78327C4FE23A60700010001
:10191000724405618280011122CE00102326A4FEAC
:10192000B707014093870740944BB707014093875F
:1019300007400327C4FE558F98CB01007244056110
:101940008280797122D60018232EA4FC232604FE5F
:10195000B707014093870740D84B8327C4FDF98F11
:1019600089C785472326F4FE19A0232604FE832772
:10197000C4FE3E85325445618280011122CE0010A2
:101980002326A4FEB7070140938707400327C4FE20
:10199000D8CB0100724405618280797122D600188B
:1019A000232EA4FC232604FE232404FEB7070140B3
:1019B000938707409C430327C4FDF98F2324F4FE3B
:1019C000B707014093870740D84B8327C4FDF98FA1
:1019D00081CB832784FE89C785472326F4FE19A07F
:1019E000232604FE8327C4FE3E853254456182804F
:1019F000011122CE00102326A4FEB70701409387D1
:101A000007400327C4FED8CB0100724405618280E1
:101A1000797122D60018232EA4FC232604FEB727B2
:101A200002409C432326F4FE8327C4FE93F78703DA
:101A30002326F4FE0327C4FE8327C4FDD98F232663
:101A4000F4FEB72702400327C4FE98C301003254B6
:101A500045618280411122C60008B727024037073E
:101A6000674513073712D8C3B72702403797EFCD22
:101A70001307B79AD8C30100324441018280411153
:101A800022C60008B7270240984BB72702401367C9
:101A9000070898CB0100324441018280797106D653
:101AA00022D40018232EA4FC91472326F4FE3705E8
:101AB0000B0011252326A4FE0327C4FE91476313C0
:101AC000F704B7270240984BB72702401367270057
:101AD00098CBB72702400327C4FDD8CBB7270240D5
:101AE000984BB72702401367070498CB37050B00C4
:101AF000D9232326A4FEB7270240984BB7270240DC
:101B0000759B98CB8327C4FE3E85B2502254456115
:101B10008280011106CE22CC001091472326F4FECC
:101B200037050B00492B2326A4FE0327C4FE91474B
:101B3000631EF702B7270240984BB727024013678E
:101B4000470098CBB7270240984BB727024013674E
:101B5000070498CB37050B00B92B2326A4FEB72723
:101B60000240984BB72702406D9B98CB8327C4FE59
:101B70003E85F240624405618280011106CE22CC8E
:101B8000001091472326F4FE37050B002D23232652
:101B9000A4FE0327C4FE9147631FF704653DB727E2
:101BA0000240370767451307371298C7B727024027
:101BB0003797EFCD1307B79A98C7B7270240984BCE
:101BC000B72702401367070298CBB7270240984B0C
:101BD000B72702401367070498CB37050B00E129AC
:101BE0002326A4FEB7270240984BB727024013775D
:101BF000F7FD98CB69358327C4FE3E85F2406244E9
:101C000005618280797106D622D40018232EA4FCA7
:101C1000AD37B1237D23A30704FE15A88347F4FE47
:101C20008A073E87B707002093870780B306F7002F
:101C30008327C4FD13874700232EE4FC9C43BE8505
:101C40003685F9238347F4FE8507A307F4FE03478F
:101C5000F4FE8D47E3F4E7FCB70700201385078007
:101C6000D92D89230100B2502254456182803971F7
:101C700006DE22DC80002326A4FCFD57A303F4FE2D
:101C8000FD572303F4FEFD57A302F4FEFD57230284
:101C9000F4FE91472324F4FEB7270240DC4F898BE2
:101CA00089C799472324F4FEFDA08327C4FC93C76A
:101CB000F7FF2326F4FC8327C4FCA303F4FE832749
:101CC000C4FCA1832303F4FE8327C4FCC183A302C5
:101CD000F4FE8327C4FCE1832302F4FE1565E12EA4
:101CE0002324A4FE032784FE91476316F70AA30763
:101CF00004FE0DA88347F4FE8A073E87B70700203D
:101D000093870780BA973E878347F4FE18438A0774
:101D1000930604FFB69723A2E7FE8347F4FE8507E8
:101D2000A307F4FE0347F4FE8D47E3F5E7FC034702
:101D300074FE834774FE93C7F7FF93968700C167CD
:101D4000FD17F58F3E97834764FEC2073E97834792
:101D500064FE93C7F7FFE207BA97232EF4FC03470C
:101D600054FE834754FE93C7F7FF93968700C167DD
:101D7000FD17F58F3E97834744FEC2073E97834782
:101D800044FE93C7F7FFE207BA972320F4FE9307B8
:101D900044FD3E85853D832784FE3E85F250625496
:101DA00021618280797106D622D4001891472326BA
:101DB000F4FEB7270240DC4F898B89C79947232659
:101DC000F4FEBDA037050B00FD242326A4FE032747
:101DD000C4FE9147631EF704A30504FE0DA88347C4
:101DE000B4FE8A073E87B707002093870780BA971B
:101DF0003E878347B4FE18438A07930604FFB697CD
:101E000023A4E7FE8347B4FE8507A305F4FE03473A
:101E1000B4FE8D47E3F5E7FC032784FDC177F98F16
:101E20009387F70F232CF4FC930784FD3E85D93B61
:101E30008327C4FE3E85B2502254456182803971A9
:101E400006DE22DC8000AA873687A307F4FCAE8773
:101E50002307F4FCB287A306F4FCBA872306F4FC3C
:101E600091472326F4FEB7270240DC4F898B89C7B0
:101E700099472326F4FE51A80347C4FC8347D4FCAA
:101E8000D98F13F7F70F8347E4FCD98F13F7F70FB8
:101E90008347F4FCD98F93F7F70F93E707FE2305E9
:101EA000F4FEA30504FE0DA88347B4FE8A073E870F
:101EB000B707002093870780BA973E878347B4FE11
:101EC00018438A07930604FFB69723A4E7FE8347C7
:101ED000B4FE8507A305F4FE0347B4FE8D47E3F582
:101EE000E7FC8347A4FE139707018347A4FE93C72B
:101EF000F7FFE2073E979967938757AABA97232C73
:101F0000F4FC930784FD3E85F5398327C4FE3E85A6
:101F1000F250625421618280411122C60008B72725
:101F20000240DC4F89833E85324441018280411169
:101F300022C60008B72702409C533E853244410127
:101F40008280011122CE0010232604FEB727024012
:101F5000DC4F898B89C785472326F4FE19A02326E9
:101F600004FE8327C4FE3E85724405618280011110
:101F700022CE00102326A4FE2324B4FE832784FE51
:101F800099CBB7270240944BB72702400327C4FEE2
:101F9000558F98CB21A8B7270240944B8327C4FEC6
:101FA00013C7F7FFB7270240758F98CB0100724423
:101FB00005618280797122D60018232EA4FC232685
:101FC00004FE0327C4FD8547631EF700B7270240C0
:101FD000DC4F858B89C785472326F4FE0DA0232679
:101FE00004FE31A8B7270240D8478327C4FDF98FE4
:101FF00089C785472326F4FE19A0232604FE8327DC
:10200000C4FE3E85325445618280011122CE00100B
:102010002326A4FEB72702400327C4FED8C7010029
:10202000724405618280011122CE0010914723265F
:10203000F4FEB7270240DC4713F717008547631605
:10204000F70085472326F4FE29A8B7270240DC477E
:10205000C18B89C78D472326F4FE21A091472326F3
:10206000F4FE8327C4FE3E8572440561828001111F
:1020700022CE001091472326F4FEB7270240DC470A
:1020800013F7170085476316F70085472326F4FEEC
:1020900029A8B7270240DC47C18B89C78D47232673
:1020A000F4FE21A091472326F4FE8327C4FE3E853B
:1020B000724405618280797106D622D40018232EDD
:1020C000A4FC91472326F4FE5D372326A4FE09A82D
:1020D000793F2326A4FE8327C4FDFD17232EF4FC9D
:1020E0000327C4FE85476315F7008327C4FDEDF37E
:1020F0008327C4FD81E795472326F4FE8327C4FE8A
:102100003E85B250225445618280797106D622D430
:102110000018232EA4FC91472326F4FE893F232692
:10212000A4FE09A8A9372326A4FE8327C4FDFD1712
:10213000232EF4FC0327C4FE85476315F70083278D
:10214000C4FDEDF38327C4FD81E795472326F4FE04
:102150008327C4FE3E85B2502254456182804111DE
:1021600022C60008B7270240370767451307371212
:10217000D8C3B72702403797EFCD1307B79AD8C314
:10218000B72702403707674513073712D8D3B72759
:1021900002403797EFCD1307B79AD8D301003244E6
:1021A00041018280411122C60008B7270240944BAA
:1021B000B72702402167558F98CB01003244410177
:1021C0008280411122C60008B7270240944BB727EE
:1021D00002404167558F98CBB7270240944BB727F1
:1021E000024037070800558F98CB0100B7270240FF
:1021F000DC47858BE5FFB7270240944BB7270240A9
:1022000041777D17758F98CB010032444101828060
:10221000011122CE00102326A4FE2324B4FEB727EA
:102220000240944BB72702404167558F98CB8327D4
:10223000C4FE032784FE98C3B7270240944BB727F8
:10224000024037070400558F98CB0100B7270240A2
:10225000DC47858BE5FFB7270240944BB727024048
:1022600041777D17758F98CB01007244056182809C
:10227000011122CE00102326A4FEB7270240944B62
:10228000B727024037070200558F98CBB727024087
:102290000327C4FED8CBB7270240984BB72702408C
:1022A0001367070498CB0100B7270240DC47858BF2
:1022B000E5FFB7270240944BB727024001777D170F
:1022C000758F98CB0100724405618280011122CE86
:1022D00000102326A4FE0327C4FEE177F98F2326EE
:1022E000F4FEB7270240944BB7270240370780001F
:1022F000558F98CBB72702400327C4FED8CBB7270A
:102300000240984BB72702401367070498CB01009F
:10231000B7270240DC47858BE5FFB7270240944B87
:10232000B7270240370780FF7D17758F98CB0100D4
:10233000724405618280011122CE00102326A4FE82
:10234000B7270240944BB72702404167558F98CB7F
:10235000B72702400327C4FED8CBB7270240984BCB
:10236000B72702401367070498CB0100B727024044
:10237000DC47858BE5FFB7270240944BB727024027
:1023800041777D17758F98CB01007244056182807B
:10239000011106CE22CC00102326A4FEEFF08FEB15
:1023A000B7270240370767451307371298D7B72773
:1023B00002403797EFCD1307B79A98D7B727024057
:1023C000D447B727024071777D17758FD8C7032789
:1023D000C4FE9167631AF700B7270240D447B727B6
:1023E00002401167558FD8C7EFF06FE90100F24046
:1023F000624405618280011106CE22CC00102326A2
:10240000A4FE0327C4FEB717014093870780631B10
:10241000F70085451145EF20407781451145EF20B4
:10242000C07681A00327C4FEB7170140938707C079
:10243000631BF70085452145EF2020758145214527
:10244000EF20A07439A80327C4FEB7170140631A10
:10245000F70085454145EF20407381454145EF2018
:10246000C0720100F240624405618280411106C6DB
:1024700022C4000885450545EF20207181450545AA
:10248000EF20A0700100B2402244410182803971E6
:1024900022DE80002326A4FC2324B4FC232604FE91
:1024A000232004FE232404FE232E04FC232204FE06
:1024B000232C04FC832784FC9C47BD8B2326F4FE3D
:1024C000832784FC9C47C18B89CB832784FCDC4316
:1024D0000327C4FED98F2326F4FE832784FC9C4364
:1024E00093F7F70FE1CF8327C4FC9C432322F4FE2C
:1024F000232404FE55A8832784FE0547B317F7005D
:10250000232EF4FC832784FC9C430327C4FDF98F0E
:102510002320F4FE032704FE8327C4FD6311F7087C
:10252000832784FE8A07232EF4FC8327C4FD3D47BE
:10253000B317F700232CF4FC832784FD93C7F7FF20
:10254000032744FEF98F2322F4FE8327C4FD0327CB
:10255000C4FEB317F700032744FED98F2322F4FEED
:10256000832784FC984793078002631BF700832727
:1025700084FE05473317F7008327C4FCD8CB05A09A
:10258000832784FC984793078004631AF700832706
:1025900084FE05473317F7008327C4FC98CB8327B5
:1025A00084FE85072324F4FE032784FE9D47E3F47D
:1025B000E7F48327C4FC032744FE98C3832784FCE5
:1025C0009843C167938707F0F98F6386071603273F
:1025D000C4FCB7170140938707806319F700B7075A
:1025E000002083A747022322F4FE05A80327C4FC8A
:1025F000B7170140938707C06317F70083A781804F
:102600002322F4FE19A80327C4FCB7170140631660
:10261000F70083A7C1802322F4FE232404FE65A8CB
:10262000832784FEA1070547B317F700232EF4FC88
:10263000832784FC9C430327C4FDF98F2320F4FEE9
:10264000032704FE8327C4FD6312F708832784FE53
:102650008A07232EF4FC8327C4FD3D47B317F700F8
:10266000232CF4FC832784FD93C7F7FF032744FE44
:10267000F98F2322F4FE8327C4FD0327C4FEB3177A
:10268000F700032744FED98F2322F4FE832784FC1E
:10269000984793078002631BF700832784FEA107F6
:1026A00005473317F7008327C4FCD8CB832784FC66
:1026B000984793078004631BF700832784FEA107D4
:1026C00005473317F7008327C4FC98CB832784FE84
:1026D00085072324F4FE032784FE9D47E3F2E7F4F5
:1026E0008327C4FC032744FED8C30327C4FCB717C1
:1026F0000140938707806319F700B707002003277D
:1027000044FE23A2E70205A80327C4FCB717014033
:10271000938707C06317F700032744FE23A4E180D3
:1027200019A80327C4FCB71701406316F700032755
:1027300044FE23A6E180832784FC9843C167636E2F
:10274000F70C8327C4FCDC4F2322F4FE232404FE71
:102750005DA8832784FEC1070547B317F700232E22
:10276000F4FC832784FC9C430327C4FDF98F2320BA
:10277000F4FE032704FE8327C4FD6311F7088327B3
:1027800084FE8A07232EF4FC8327C4FD3D47B3173C
:10279000F700232CF4FC832784FD93C7F7FF03275E
:1027A00044FEF98F2322F4FE8327C4FD0327C4FED1
:1027B000B317F700032744FED98F2322F4FE8327A3
:1027C00084FC984793078002631BF700832784FEED
:1027D000C10705473317F7008327C4FCD8CB8327ED
:1027E00084FC984793078004631AF700832784FECC
:1027F00005473317F7008327C4FC98D3832784FE4B
:1028000085072324F4FE032784FE9D47E3F3E7F4C2
:102810008327C4FC032744FED8CF010072542161F2
:102820008280011122CE00102326A4FE8327C4FE3D
:10283000370700017D1798C38327C4FE0547D8C317
:102840008327C4FE114798C7010072440561828046
:10285000797122D60018232EA4FC232CB4FCA307E4
:1028600004FE8327C4FD9847832784FDF98F89C719
:102870008547A307F4FE19A0A30704FE8347F4FECF
:102880003E85325445618280797122D60018232E0C
:10289000A4FC8327C4FD9C472326F4FE8327C4FEA3
:1028A0003E85325445618280797122D60018232EEC
:1028B000A4FC232CB4FCA30704FE8327C4FDD84743
:1028C000832784FDF98F89C78547A307F4FE19A0E4
:1028D000A30704FE8347F4FE3E853254456182809F
:1028E000797122D60018232EA4FC8327C4FDDC476F
:1028F0002326F4FE8327C4FE3E8532544561828040
:10290000011122CE00102326A4FE2324B4FE0327A7
:1029100084FEC167FD17F98F91C78327C4FE032783
:1029200084FE98CB032784FEC1676369F700832781
:1029300084FE13D707018327C4FE98D30100724495
:1029400005618280011122CE00102326A4FE2324DB
:10295000B4FE8327C4FE032784FED8CB0100724453
:1029600005618280011122CE00102326A4FE2324BB
:10297000B4FE2322C4FE832744FE8DCB032784FEAE
:10298000C167FD17F98F91C78327C4FE032784FE13
:1029900098CB032784FEC167636FF700832784FE0B
:1029A00013D707018327C4FE98D331A08327C4FE21
:1029B000032784FED8CB0100724405618280011197
:1029C00022CE00102326A4FE2324B4FE8327C4FEB7
:1029D000032784FED8C701007244056182807971A3
:1029E00022D60018232EA4FC232CB4FCB707000128
:1029F0002326F4FE0327C4FE832784FDD98F2326D4
:102A0000F4FE8327C4FD0327C4FE98CF8327C4FDAB
:102A1000032784FD98CF8327C4FD0327C4FE98CFE6
:102A20008327C4FD9C4F2326F4FE8327C4FD9C4FBF
:102A30002326F4FE0100325445618280797122D64A
:102A40000018232EA4FC232CB4FC232404FE2322F0
:102A500004FE232604FE232004FEB7070140DC43C6
:102A60002326F4FE8327C4FDC183BD8B2320F4FEFF
:102A70000327C4FDC167FD17F98F2324F4FE032744
:102A8000C4FDB7070008F98FE9CF0327C4FDB707D6
:102A900030007D8FB70730006315F7020327C4FEAF
:102AA000B70700F1FD17F98F2326F4FEB7070140A1
:102AB000D443B7070140370700F17D17758FD8C39E
:102AC0001DA20327C4FDB7074000F98F9DCFB7872C
:102AD00003002322F4FE832744FE93C7F7FF032756
:102AE000C4FEF98F2326F4FE832784FD89CB832738
:102AF00084FEBE070327C4FED98F2326F4FEB70742
:102B000001400327C4FED8C329A20327C4FDB70789
:102B100030007D8FB70720006314F702832704FE7F
:102B2000C1071D47B317F7002322F4FE832744FE95
:102B300093C7F7FF0327C4FEF98F2326F4FE65A091
:102B4000832704FE1D47B317F7002322F4FE8327D3
:102B500044FE93C7F7FF0327C4FEF98F2326F4FE34
:102B600059A00327C4FDB70730007D8FB707300099
:102B70006314F702832704FEC1070D47B317F7005C
:102B80002322F4FE832744FE93C7F7FF0327C4FEE6
:102B9000F98F2326F4FE81A80327C4FDB707100090
:102BA000F98F95C3832704FE0D47B317F70023223F
:102BB000F4FE832744FE93C7F7FF0327C4FEF98F73
:102BC0002326F4FE0DA08327C4FDD5839D8B920799
:102BD000032784FEB317F70093C7F7FF0327C4FE4C
:102BE000F98F2326F4FE832784FD99CF8327C4FD24
:102BF000D5839D8B9207032784FEB317F700032725
:102C0000C4FED98F2326F4FEB70701400327C4FE74
:102C1000D8C3325445618280797122D60018AA87C0
:102C20002E87A30FF4FCBA87231EF4FC232604FE90
:102C30008357C4FDBD8B86070D47B317F7002326C6
:102C4000F4FE370701408357C4FD9183C207C18357
:102C50008A07BA9798478327C4FE93C7F7FFB7063A
:102C600001400356C4FD1182420641827D8F9317B5
:102C70002600B69798C7370701408357C4FD918354
:102C8000C207C1838A07BA9798478346F4FD8357E2
:102C9000C4FDBD8B8607B397F600B7060140035607
:102CA000C4FD1182420641825D8F93172600B697BC
:102CB00098C70100325445618280011106CE22CCB2
:102CC0000010232004FE232204FE232404FE2326D6
:102CD00004FE85457145EF10305EB7F7FF1F9387FF
:102CE00047709C43B99B2326F4FE0327C4FEB70715
:102CF0005603938707606303F70A0327C4FEB707E9
:102D000056039387076063E1E7020327C4FEB777A2
:102D10001103630AF7220327C4FEB7075103938701
:102D20000760630CF70241AC0327C4FEB7075B03DF
:102D3000938707606309F70C0327C4FEB7075E0398
:102D4000938707606306F7120327C4FEB70757038C
:102D5000938707606304F718B9ACB7C73F00232017
:102D6000F4FE930780042324F4FE930704FEBE853B
:102D7000B7170140138507C0EFF06FF19307F00319
:102D80002320F4FE930780042324F4FE930704FE1B
:102D9000BE8537150140EFF08FEF31ACB70700016A
:102DA000938707F02320F4FE930780042324F4FE86
:102DB000930704FEBE85B717014013850780EFF027
:102DC0000FEDB7E73F0091072320F4FE930780043F
:102DD0002324F4FE930704FEBE85B7170140138534
:102DE00007C0EFF0CFEA9307600F2320F4FE9307AC
:102DF00080042324F4FE930704FEBE8537150140AA
:102E0000EFF0EFE84DAAB7D7FF00938707F0232034
:102E1000F4FE930780042324F4FE930704FEBE858A
:102E2000B717014013850780EFF06FE6B7E73F0063
:102E300091072320F4FE930780042324F4FE9307D4
:102E400004FEBE85B7170140138507C0EFF02FE4DD
:102E50009307700F2320F4FE930780042324F4FECD
:102E6000930704FEBE8537150140EFF04FE2A1A2A3
:102E7000B7070001938707F02320F4FE930780042F
:102E80002324F4FE930704FEBE85B7170140138583
:102E90000780EFF0CFDFB7E73F009387477F23201E
:102EA000F4FE930780042324F4FE930704FEBE85FA
:102EB000B7170140138507C0EFF06FDD9307F00FE0
:102EC0002320F4FE930780042324F4FE930704FEDA
:102ED000BE8537150140EFF08FDBF1A8B707000181
:102EE000938707F02320F4FE930780042324F4FE45
:102EF000930704FEBE85B717014013850780EFF0E6
:102F00000FD9B7F73F00F5172320F4FE930780048D
:102F10002324F4FE930704FEBE85B71701401385F2
:102F200007C0EFF0CFD69307D00F2320F4FE93070E
:102F300080042324F4FE930704FEBE853715014068
:102F4000EFF0EFD48DA8B7F7FF0093870710232089
:102F5000F4FE930780042324F4FE930704FEBE8549
:102F6000B717014013850780EFF06FD2B707000154
:102F70009387C7F72320F4FE930780042324F4FEED
:102F8000930704FEBE85B7170140138507C0EFF015
:102F90000FD0B7F7F0009387773F2320F4FE930715
:102FA00080042324F4FE930704FEBE8537150140F8
:102FB000EFF0EFCD01000100F24062440561828034
:102FC000011106CE22CC00102326A4FE0327C4FE46
:102FD000B757004093870740631CF70085453705C6
:102FE0002000EF10F03E814537052000EF10503EE5
:102FF0000100F240624405618280397106DE22DC04
:1030000080002326A4FC2324B4FC231704FE2315EC
:1030100004FE91472316F4FEB7177A009387072022
:103020002322F4FE8327C4FC83D747002317F4FE32
:103030008357E4FE93F707FC2317F4FE930744FD40
:103040003E85EF1090188327C4FD2322F4FE03274A
:1030500044FEB7470F0093870724B357F7022315A1
:10306000F4FE0357E4FE8357A4FED98F2317F4FE22
:103070008327C4FC0357E4FE2392E7008327C4FCA4
:1030800083D70700C207C183F99B139707014183C8
:103090008327C4FC2390E700231704FE832784FCC6
:1030A0009843E1679387076A63ECE702832784FC10
:1030B0009C438607032744FEB357F7022316F4FE0A
:1030C0000357C4FE8D4763E5E70091472316F4FEDE
:1030D0000357E4FE8357C4FED98F2317F4FE51A093
:1030E000832784FC03D76700B167FD17631FF700D0
:1030F000832784FC9843BA878607BA97032744FE40
:10310000B357F7022316F4FE2DA0832784FC9843BF
:10311000BA878607BA978E07BA97032744FEB35734
:10312000F7022316F4FE0357C4FE9167D98F2316C6
:10313000F4FE0357C4FE8567FD17F98F99E783579F
:10314000C4FE93E717002316F4FE0357C4FE83570B
:10315000E4FED98F139707014183E177D98F2317B5
:10316000F4FE8327C4FC0357E4FE239EE700832775
:10317000C4FC83D70700C207C18393E717001397E6
:10318000070141838327C4FC2390E7008327C4FC05
:1031900083D707002317F4FE8357E4FE93F757BF46
:1031A0002317F4FE832784FC03D74700832784FC7E
:1031B00083D7A700D98F1397070141838357E4FE74
:1031C000D98F2317F4FE8327C4FC0357E4FE239012
:1031D000E700832784FC03D7C700832784FC83D7B9
:1031E0008700D98F1397070141838327C4FC239459
:1031F000E7000100F250625421618280011122CE69
:1032000000102326A4FE8327C4FE05671307873812
:1032100098C38327C4FE239207008327C4FE7177D7
:103220007D172393E7008327C4FE23940700832799
:10323000C4FE239507008327C4FE11672396E70089
:103240000100724405618280011122CE0010232604
:10325000A4FE2324B4FE832784FE8DC38327C4FEEB
:1032600083D70700C207C18393E7170013970701AD
:1032700041838327C4FE2390E70039A88327C4FE37
:1032800083D70700C207C183F99B139707014183C6
:103290008327C4FE2390E700010072440561828009
:1032A000011122CE00102326A4FE2324B4FE83277E
:1032B00084FE85C78327C4FE83D747001397070181
:1032C0004183856793870780D98F139707014183CF
:1032D0008327C4FE2392E7001DA08327C4FE83D763
:1032E0004700139707014183FD779387F77FF98F95
:1032F0001397070141838327C4FE2392E70001004F
:10330000724405618280011122CE00102326A4FEA2
:103310002324B4FE832784FE95C38327C4FE83D76A
:1033200047001397070141838567D98F13970701DA
:1033300041838327C4FE2392E70015A08327C4FEA0
:1033400083D74700139707014183FD77FD17F98F56
:103350001397070141838327C4FE2392E7000100EE
:10336000724405618280011122CE00102326A4FE42
:103370002324B4FE832784FE8DC38327C4FE83D712
:103380000700C207C18393E7071013970701418322
:103390008327C4FE2390E70005A08327C4FE83D7BC
:1033A0000700C207C18393F7F7EF13970701418323
:1033B0008327C4FE2390E7000100724405618280E8
:1033C000011122CE00102326A4FE2324B4FE83275D
:1033D00084FE8DC38327C4FE83D70700C207C18341
:1033E00093E707201397070141838327C4FE2390A7
:1033F000E70005A08327C4FE83D70700C207C18367
:1034000093F7F7DF1397070141838327C4FE2390C7
:10341000E7000100724405618280011122CE001094
:103420002326A4FE2324B4FE832784FE8DC3832792
:10343000C4FE83D70700C207C18393E707401397F1
:10344000070141838327C4FE2390E70005A083275B
:10345000C4FE83D70700C207C18393F7F7BF139752
:10346000070141838327C4FE2390E70001007244D3
:1034700005618280797122D60018232EA4FCAE87C4
:10348000A30DF4FC231704FE8327C4FD83D7C700D4
:103490002317F4FE8357E4FE93F717F02317F4FE87
:1034A0008347B4FDC207C18793F7E70F139707015E
:1034B00041878317E4FED98FC207C1872317F4FE23
:1034C0008327C4FD0357E4FE2396E700010032542E
:1034D00045618280011122CE00102326A4FE232400
:1034E000B4FE832784FE8DC38327C4FE83D7C70021
:1034F000C207C18393E7170013970701418383270E
:10350000C4FE2396E70039A88327C4FE83D7C700EB
:10351000C207C183F99B1397070141838327C4FE28
:103520002396E7000100724405618280011122CEDA
:1035300000102326A4FE2324B4FE832784FE8DC31B
:103540008327C4FE83D70700C207C18393E707041C
:103550001397070141838327C4FE2390E70005A04A
:103560008327C4FE83D70700C207C18393F7F7FB05
:103570001397070141838327C4FE2390E7000100CE
:10358000724405618280011122CE00102326A4FE20
:10359000AE872322C4FE2315F4FE832744FE9DC379
:1035A0008327C4FE83D747001397070141838357BE
:1035B000A4FED98F1397070141838327C4FE23926A
:1035C000E70035A08327C4FE83D747001397070180
:1035D00041838357A4FE93C7F7FFC207C183F98FC6
:1035E0001397070141838327C4FE2392E70001005C
:1035F000724405618280011122CE00102326A4FEB0
:10360000AE87A305F4FE8347B4FE139707014183F9
:103610008327C4FE2398E70001007244056182807D
:10362000011122CE00102326A4FE8327C4FE83D7D7
:103630000701C207C18393F7F70F3E857244056106
:103640008280011122CE00102326A4FEAE8732878D
:10365000A305F4FEBA872305F4FE8347A4FE81CBBD
:103660008347B4FE93E71700A305F4FE31A0834718
:10367000B4FEF99BA305F4FE8347B4FE139707013C
:1036800041838327C4FE2398E7000100724405614B
:103690008280797122D60018232EA4FCAE87A30D58
:1036A000F4FC232604FE8327C4FD2326F4FE0347EF
:1036B000B4FD8327C4FEBA972326F4FE8327C4FEF5
:1036C00083D70700C207C1833E853254456182809B
:1036D000011122CE00102326A4FE2324B4FE83274A
:1036E00084FE95C38327C4FE83D707001397070181
:1036F0004183E177D98F1397070141838327C4FE64
:103700002390E70015A08327C4FE83D707001397F3
:1037100007014183A167FD17F98F139707014183C3
:103720008327C4FE2390E700010072440561828074
:10373000011122CE00102326A4FEAE872315F4FE2D
:103740008357A4FE9387078085E78327C4FE83D72A
:103750000700139707014183856793870780D98FF7
:103760001397070141838327C4FE2390E7001DA020
:103770008327C4FE83D70700139707014183FD7792
:103780009387F77FF98F1397070141838327C4FE3F
:103790002390E7000100724405618280011122CE6E
:1037A00000102326A4FE2324B4FE832784FE95C3A1
:1037B0008327C4FE83D707001397070141838567DA
:1037C000D98F1397070141838327C4FE2390E70015
:1037D00015A08327C4FE83D70700139707014183F1
:1037E000FD77FD17F98F1397070141838327C4FEE7
:1037F0002390E7000100724405618280011122CE0E
:1038000000102326A4FEAE872315F4FE8357A4FEE2
:103810009387078085E78327C4FE83D70700139724
:1038200007014183856793870780D98F1397070125
:1038300041838327C4FE2390E7001DA08327C4FE95
:1038400083D70700139707014183FD779387F77F9D
:10385000F98F1397070141838327C4FE2390E70064
:103860000100724405618280011122CE00102326DE
:10387000A4FE2324B4FE832784FE8DC38327C4FEC5
:1038800083D70700C207C18393E707021397070195
:1038900041838327C4FE2390E70005A08327C4FE4D
:1038A00083D70700C207C18393F7F7FD139707017A
:1038B00041838327C4FE2390E70001007244056121
:1038C0008280011122CE00102326A4FE8327C4FE8D
:1038D00083D78701C207C183A183C207C18393F73E
:1038E000F70F3E85724405618280011122CE0010DF
:1038F0002326A4FE2324B4FE832784FE8DC38327BE
:10390000C4FE83D70700C207C18393E7070113975B
:10391000070141838327C4FE2390E70039A883274A
:10392000C4FE83D70700C207C183BD9B139707015D
:1039300041838327C4FE2390E700010072440561A0
:103940008280011122CE00102326A4FE2324B4FE7F
:10395000832784FE8DE38327C4FE83D70700C20735
:10396000C18393E707081397070141838327C4FEA8
:103970002390E70005A08327C4FE83D70700C20772
:10398000C18393F7F7F71397070141838327C4FE99
:103990002390E7000100724405618280011122CE6C
:1039A00000102326A4FEAE872315F4FE0357A4FEC1
:1039B00091676304F7028327C4FE83D7C701139777
:1039C00007014183F177FD17F98F139707014183B1
:1039D0008327C4FE239EE7000DA08327C4FE83D760
:1039E000C7011397070141839167D98F1397070187
:1039F00041838327C4FE239EE700010072440561D2
:103A00008280797122D60018232EA4FC232CB4FCCA
:103A1000232404FE232204FE232004FE232604FE86
:103A20008327C4FD83D74701C207C1832322F4FE45
:103A30008327C4FD83D78701C207C1832320F4FEF7
:103A4000832704FEC2072320F4FE032744FE8327B6
:103A500004FE5D8FB7070001FD17F98F2324F4FEE4
:103A6000032784FE832784FDF98F032784FD6316D3
:103A7000F70085472326F4FE19A0232604FE83279A
:103A8000C4FE3E85325445618280797122D6001889
:103A9000232EA4FC232604FE232404FE232204FE5A
:103AA0008327C4FD83D74701C207C1832324F4FEC3
:103AB0008327C4FD83D78701C207C1832322F4FE75
:103AC000832744FEC2072322F4FE032784FE8327B4
:103AD00044FE5D8FB7070001FD17F98F2326F4FE22
:103AE0008327C4FE3E85325445618280797122D697
:103AF0000018232EA4FC232CB4FC232604FE23242C
:103B000004FE232204FE8327C4FD2322F4FE832720
:103B100084FDF1832324F4FE032784FDB70700010D
:103B2000FD17F98F232CF4FC832784FE99C7832784
:103B300044FED1072322F4FE19A8832784FDC18304
:103B4000232CF4FC832744FEE1072322F4FE832781
:103B500044FE9843832784FDF98F89C78547232630
:103B6000F4FE19A0232604FE8327C4FE3E853254AA
:103B700045618280797122D60018232EA4FC232C63
:103B8000B4FC232604FE032784FDB7070001FD17BC
:103B9000F98F2326F4FE8327C4FEC207C18393C78F
:103BA000F7FF1397070141838327C4FD239AE7009A
:103BB0000100325445618280797122D60018232E8B
:103BC000A4FC232CB4FC232604FE232404FE832718
:103BD00084FDC1830327C4FD035747004207418387
:103BE000F98F93F707702324F4FE032784FDB707AA
:103BF0000001FD17F98F232CF4FC8327C4FD83D724
:103C00004701C207C1833E87832784FDF98F81CB9B
:103C1000832784FE89C785472326F4FE19A023261F
:103C200004FE8327C4FE3E8532544561828079714B
:103C300022D60018232EA4FC232CB4FC232604FE39
:103C4000032784FDB7070001FD17F98F2326F4FE33
:103C50008327C4FEC207C18393C7F7FF13970701E9
:103C600041838327C4FD239AE70001003254456154
:103C70008280011122CE0010AA872317F4FEB737E5
:103C800000400357E4FE98C301007244056182803E
:103C9000011122CE0010AA87A307F4FEB737004017
:103CA0000347F4FED8C3010072440561828001110C
:103CB00022CE0010AA872317F4FEB737004003571F
:103CC000E4FE98C70100724405618280411122C65A
:103CD0000008B73700402D671307A7AA98C3010053
:103CE000324441018280411122C60008B7370040AA
:103CF00035671307C7CC98C3010032444101828065
:103D0000797122D60018AA87231FF4FC232604FE0B
:103D1000B7370040D8478357E4FDF98F89C78547F7
:103D20002326F4FE19A0232604FE8327C4FE3E8525
:103D3000325445618280011122CE00102326A4FE58
:103D40000327C4FE23A0E182010072440561828042
:103D50005971A2D68018232EA4F8A30704FE83A7C6
:103D600001829DEB8327C4F983C707003E87832721
:103D7000C4F983C72700920793F7F70F2324E4FEC3
:103D8000A303F4FE37E700E0832784FEBA970347D6
:103D900074FE2380E74089AC03A701828547631343
:103DA000F7088327C4F903C7170085476312F70490
:103DB0008327C4F983C707003E878327C4F983C7D5
:103DC00027009207E207E18793E707F8E207E18718
:103DD00093F7F70F2320E4FEA30FF4FC37E700E08E
:103DE000832704FEBA970347F4FD2380E740EDAA3A
:103DF0008327C4F983C707003E878327C4F983C795
:103E00002700920793F7F70F232CE4FCA30BF4FC95
:103E100037E700E0832784FDBA97034774FD2380CA
:103E2000E740D9A203A701828947631FF70A8327C6
:103E3000C4F903C71700854763E8E7048327C4F97B
:103E400003C727008327C4F983C717008A0793F79E
:103E5000F70FBA97A307F4FE8327C4F983C70700B7
:103E60003E878347F4FE920793F7F70F2328E4FC7D
:103E7000A307F4FC37E700E0832704FDBA97034764
:103E8000F4FC2380E7408DA28327C4F903C72700F1
:103E90008327C4F983C717009387E70393F7F70FC6
:103EA0008A0793F7F70FBA97A307F4FE8327C4F99D
:103EB00083C707003E878347F4FE9207E207E18746
:103EC00093E707F8E207E18793F7F70F2324E4FC71
:103ED000A303F4FC37E700E0832784FCBA97034789
:103EE00074FC2380E74009A203A701828D47631F6A
:103EF000F70A8327C4F903C717008D4763E8E7046F
:103F00008327C4F903C727008327C4F983C7170091
:103F1000860793F7F70FBA97A307F4FE8327C4F930
:103F200083C707003E878347F4FE920793F7F70F96
:103F30002320E4FCA30FF4FA37E700E0832704FC16
:103F4000BA970347F4FB2380E74079A88327C4F995
:103F500003C727008327C4F983C717009387C707C0
:103F600093F7F70F860793F7F70FBA97A307F4FEB7
:103F70008327C4F983C707003E878347F4FE92076F
:103F8000E207E18793E707F8E207E18793F7F70F86
:103F9000232CE4FAA30BF4FA37E700E0832784FB31
:103FA000BA97034774FB2380E7403DA803A701822B
:103FB0009147631BF7028327C4F983C707003E8735
:103FC0008327C4F983C71700920793F7F70F2328B5
:103FD000E4FAA307F4FA37E700E0832704FBBA9773
:103FE0000347F4FA2380E7408327C4F9DC4385CBF9
:103FF0008327C4F983C707002324F4FA832784FAAC
:10400000FD8B0547B316F70037E700E0832784FAF6
:104010009583938707048A07BA9794C33DA08327A3
:10402000C4F983C707002322F4FA832744FAFD8BDF
:104030000547B316F70037E700E0832744FA958376
:10404000938707068A07BA9794C3010036546561BF
:104050008280411122C60008B767024037076745D2
:1040600013073712D8C7B76702403797EFCD13074A
:10407000B79AD8C70100324441018280411122C65B
:104080000008B7670240D443B76702403707008093
:10409000558FD8C30100324441018280411122C6AC
:1040A0000008B76702403707674513073712D8CBB8
:1040B000B76702403797EFCD1307B79AD8CB010007
:1040C000324441018280411122C60008B767024094
:1040D00083D70700139707014183B767024013672F
:1040E0000708420741832390E70001003244410161
:1040F0008280411122C60008B76702403707674532
:104100001307371298CBB76702403797EFCD1307E5
:10411000B79A98CB0100324441018280411122C6F6
:10412000000803A74182B70700805D8F23A2E182C8
:10413000B767024003A7418298C703A74182B70728
:10414000008093C7F7FF7D8F23A2E18201003244F4
:1041500041018280797122D60018232EA4FC2313FA
:1041600004FE231704FE232404FEB767024083D70E
:1041700007002313F4FEB767024083D727002317F5
:10418000F4FEB7670240DC432324F4FE8327C4FD1A
:10419000DC43B5E78357E4FE93F7F7CF2317F4FE2C
:1041A000032784FEC1778507F98F2324F4FE832734
:1041B000C4FDDC5BC207C183A607139707014183D7
:1041C0008357E4FED98F2317F4FE8327C4FD9C4751
:1041D000139717008327C4FDDC478E075D8F832765
:1041E000C4FD9C4B96075D8F8327C4FDDC4B9A076B
:1041F000D98F032784FED98F2324F4FEB5A8832703
:10420000C4FDD84385476319F7060357E4FEFD77DD
:104210009387F73FF98F2317F4FE032784FEB70730
:104220000200FD17F98F2324F4FE8327C4FDDC5B15
:10423000C207C183AE071397070141838357E4FE8A
:10424000D98F2317F4FE8327C4FD9C4713971701CA
:104250008327C4FDDC47CE075D8F8327C4FD9C4BBD
:10426000D6075D8F8327C4FDDC4BDA07D98F032780
:1042700084FED98F2324F4FE8327C4FD9C4F13971B
:10428000070141838327C4FDDC4FC207C1838A072E
:10429000C207C183D98F1397070141838327C4FDC8
:1042A0009C53C207C1839207C207C183D98F13975A
:1042B000070141838327C4FDDC53C207C1839A07EA
:1042C000C207C183D98F1397070141838327C4FD98
:1042D0009C57C207C183A207C207C183D98F139716
:1042E000070141838327C4FDDC57C207C183AA07A6
:1042F000C207C183D98F1397070141838327C4FD68
:104300009C5BC207C183AE07C207C183D98F1397D5
:1043100007014183835764FED98F2313F4FE83572B
:10432000E4FE93F707F02317F4FE8327C4FD03D7B9
:1043300007008357E4FED98F2317F4FEB7670240C6
:10434000035764FE2390E700B76702400357E4FE7B
:104350002391E700B7670240032784FED8C301001A
:10436000325445618280011122CE00102326A4FE22
:104370008327C4FE239007008327C4FE23A20700DF
:104380008327C4FE23A407008327C4FE23A60700B7
:104390008327C4FE23A807008327C4FE23AA07009F
:1043A0008327C4FE23AC07008327C4FE23AE070087
:1043B0008327C4FE23A007028327C4FE23A207028B
:1043C0008327C4FE23A407028327C4FE23A6070273
:1043D0008327C4FE23A807028327C4FE23AA07025B
:1043E0000100724405618280011122CE0010232653
:1043F000A4FE2324B4FE032784FE85476311F7023D
:10440000B7670240D8438327C4FE92078546B39717
:10441000F600BE86B7670240558FD8C305A0B767C0
:104420000240D4438327C4FE92070547B317F70021
:1044300013C7F7FFB7670240758FD8C301007244F6
:1044400005618280797122D60018232EA4FC2326D0
:1044500004FE83A741822326F4FE8327C4FD9C43E8
:10446000A1E38327C4FE859B2326F4FE8327C4FD96
:10447000DC43139717008327C4FD9C478A075D8F91
:104480008327C4FDDC478E075D8F8327C4FD9C4BCB
:104490009207D98F0327C4FED98F2326F4FE71A873
:1044A0008327C4FD984385476312F7048327C4FE1E
:1044B00093F7F7C32326F4FE8327C4FDDC43139749
:1044C00067008327C4FD9C479E075D8F8327C4FD3B
:1044D000DC47A2075D8F8327C4FD9C4BA607D98FBD
:1044E0000327C4FED98F2326F4FE81A88327C4FDA9
:1044F000984389476313F7040327C4FEE177938742
:10450000F77FF98F2326F4FE8327C4FDDC4313973E
:10451000B7008327C4FD9C47B2075D8F8327C4FD86
:10452000DC47B6075D8F8327C4FD9C4BBA07D98F44
:104530000327C4FED98F2326F4FE0327C4FE23A23B
:10454000E182B76702400327C4FE98C701003254D6
:1045500045618280011122CE00102326A4FE83270C
:10456000C4FE23A007008327C4FE23A207008327DD
:10457000C4FE23A407008327C4FE23A607008327C5
:10458000C4FE23A807000100724405618280011166
:1045900022CE00102326A4FE2324B4FE032784FE8B
:1045A00085476311F7020327C4FEBA878A07BA97C3
:1045B0000547B317F7003E8783A741825D8F23A28B
:1045C000E18205A00327C4FEBA878A07BA97054788
:1045D000B317F70013C7F7FF83A741827D8F23A28C
:1045E000E182B767024003A7418298C70100724485
:1045F00005618280797122D60018AA87231FF4FCF6
:10460000232604FEB767024083D7070013970701EC
:1046100041838357E4FDF98FC207C18389C785476A
:104620002326F4FE19A0232604FE8327C4FE3E851C
:10463000325445618280011122CE0010AA872317CF
:10464000F4FEB767024083D7070093960701C18243
:104650008357E4FE93C7F7FF139707014183B767BA
:104660000240758F420741832390E70001007244A6
:1046700005618280411106C622C4000885453705C0
:104680000010B92381453705001099230100B2407D
:10469000224441018280797122D60018232EA4FC85
:1046A000232604FEB77700409C432326F4FE83278D
:1046B000C4FE93F7F7F92326F4FE0327C4FE8327ED
:1046C000C4FDD98F2326F4FEB77700400327C4FE2C
:1046D00098C30100325445618280797122D6001856
:1046E000AA87A30FF4FC232604FEB77700409C435F
:1046F0002326F4FE8327C4FEF59B2326F4FEB7771A
:1047000000400327C4FE98C337E700E08567BA97E7
:1047100083A707D1B7E600E013E747008567B697A0
:1047200023A8E7D00347F4FD85476313F70237E773
:1047300000E08567BA9783A707D1B7E600E013F7D3
:1047400077FF8567B69723A8E7D07300501051A86C
:1047500037E700E08567BA9783A707D12324F4FEE3
:1047600037E700E08567BA9783A707D1B7E600E08F
:1047700013E787028567B69723A8E7D037E700E0FD
:104780008567BA9783A707D113F7F7FD832784FEC0
:1047900093F70702B7E600E05D8F8567B69723A819
:1047A000E7D037E700E08567BA9783A707D1B7E678
:1047B00000E013E787008567B69723A8E7D073006A
:1047C000501037E700E08567BA9783A707D1B7E6AF
:1047D00000E013E787008567B69723A8E7D073004A
:1047E000501037E700E08567BA9783A707D1B7E68F
:1047F00000E013F7B7FF8567B69723A8E7D001005D
:10480000325445618280411122C60008B7770040CA
:104810009843B77700401367270098C337E700E055
:104820008567BA9783A707D1B7E600E013E747008B
:104830008567B69723A8E7D037E700E08567BA9782
:1048400083A707D1B7E600E013F777FF8567B69730
:1048500023A8E7D073005010010032444101828048
:10486000797122D60018232EA4FC232604FEB777E4
:104870000040D8438327C4FDF98F89C78547232685
:10488000F4FE19A0232604FE8327C4FE3E8532547D
:1048900045618280011122CE0010232604FEB70755
:1048A0000008D1079843B7075800FD176315F700B4
:1048B00085472326F4FE8327C4FE3E8572440561A6
:1048C0008280411122C60008B71702409843B717EB
:1048D00002401367170098C3B7170240D843B717B1
:1048E000024013670705D8C3B7170240D443B71770
:1048F0000240370700F91307F7F5758FD8C3010099
:10490000324441018280797122D60018AA87A30F10
:10491000F4FC232604FEB71702409C432326F4FE32
:104920008327C4FE93F777F02326F4FE8347F4FD34
:104930008E070327C4FED98F2326F4FEB717024043
:104940000327C4FE98C301003254456182800111DF
:1049500022CE00102326A4FE8327C4FE91CBB717D6
:1049600002409843B71702401367170098C301A885
:10497000B71702409843B7170240799B98C30100CC
:10498000724405618280797122D60018232EA4FC1E
:10499000232604FEB7170240DC432326F4FE8327B8
:1049A000C4FE93F7F7F02326F4FE0327C4FE832703
:1049B000C4FDD98F2326F4FEB71702400327C4FE97
:1049C000D8C30100325445618280797122D6001823
:1049D000232EA4FC232604FE232404FE8327C4FDE7
:1049E0003777DC02130707C098C3B7170240DC43D0
:1049F00093F7070F2326F4FE8327C4FE9183232613
:104A0000F4FEB7070020138707018327C4FEBA9777
:104A100083C7070093F7F70F2324F4FEB71702406C
:104A2000DC4393F7070881EF8327C4FD984383276E
:104A300084FE3357F7028327C4FDD8C319A8832700
:104A4000C4FD9843832784FE3357F7008327C4FDB2
:104A5000D8C38327C4FDD8438327C4FD98C78327C1
:104A6000C4FDD8438327C4FDD8C701003254456133
:104A70008280011122CE00102326A4FE2324B4FE3E
:104A8000832784FE99CBB7170240D44BB717024057
:104A90000327C4FE558FD8CB21A8B7170240D44BAB
:104AA0008327C4FE13C7F7FFB7170240758FD8CB13
:104AB0000100724405618280011122CE001023267C
:104AC000A4FE2324B4FE832784FE99CBB7170240AB
:104AD000944FB71702400327C4FE558F98CF21A8E3
:104AE000B7170240944F8327C4FE13C7F7FFB717C9
:104AF0000240758F98CF01007244056182800111D8
:104B000022CE00102326A4FE2324B4FE832784FE95
:104B100099CBB7170240D44FB71702400327C4FE02
:104B2000558FD8CF21A8B7170240D44F8327C4FE92
:104B300013C7F7FFB7170240758FD8CF0100724433
:104B400005618280011122CE00102326A4FE2324B9
:104B5000B4FE832784FE99CBB7170240D44BB71716
:104B600002400327C4FE558FD8CB21A8B7170240B7
:104B7000D44B8327C4FE13C7F7FFB7170240758FC6
:104B8000D8CB0100724405618280011122CE001051
:104B90002326A4FE2324B4FE832784FE99CBB717D3
:104BA0000240D447B71702400327C4FE558FD8C729
:104BB00021A8B7170240D4478327C4FE13C7F7FFC5
:104BC000B7170240758FD8C7010072440561828013
:104BD000011122CE00102326A4FE2324B4FE832735
:104BE00084FE99CBB7170240944BB71702400327B6
:104BF000C4FE558F98CB21A8B7170240944B83274A
:104C0000C4FE13C7F7FFB7170240758F98CB01009A
:104C1000724405618280011122CE0010AA87A30789
:104C2000F4FEB71702409D070347F4FE2380E70018
:104C30000100724405618280797122D60018AA872A
:104C4000A30FF4FC232204FE232604FE232404FEE7
:104C50008347F4FD958393F7F70F2322F4FE032790
:104C600044FE85476318F700B71702409C4323268C
:104C7000F4FE31A0B7170240DC532326F4FE83472D
:104C8000F4FDFD8B2322F4FE832744FE0327C4FE9C
:104C9000B357F700858B89C785472324F4FE19A0F5
:104CA000232404FE832784FE3E853254456182809E
:104CB000411122C60008B7170240D453B71702406B
:104CC00037070001558FD8D301003244410182805B
:104CD000011106CE22CC00102326A4FE0327C4FE19
:104CE000B73701406318F70085450565793D814573
:104CF0000565613D0100F240624405618280797181
:104D000022D60018232EA4FC232CB4FC231704FE67
:104D10008327C4FD83D707002317F4FE0357E4FE5F
:104D20008D6793870704F98F2317F4FE832784FD8B
:104D300003D70700832784FD83D72700D98F1397D4
:104D400007014183832784FD83D74700D98F1397B9
:104D500007014183832784FD83D76700D98F139789
:104D600007014183832784FD83D78700D98F139759
:104D700007014183832784FD83D7A700D98F139729
:104D800007014183832784FD83D7C700D98F1397F9
:104D900007014183832784FD83D7E700D98F1397C9
:104DA000070141838357E4FED98F2317F4FE83273D
:104DB000C4FD0357E4FE2390E700832784FD03D757
:104DC00007018327C4FD2398E700010032544561A1
:104DD0008280011122CE00102326A4FE8327C4FE68
:104DE000239007008327C4FE239107008327C4FE76
:104DF000239207008327C4FE239307008327C4FE62
:104E0000239407008327C4FE239607008327C4FE4C
:104E1000239707008327C4FE1D472398E70001005E
:104E2000724405618280011122CE00102326A4FE67
:104E30002324B4FE832784FE8DC38327C4FE83D737
:104E40000700C207C18393E7070413970701418353
:104E50008327C4FE2390E70005A08327C4FE83D7E1
:104E60000700C207C18393F7F7FB1397070141833C
:104E70008327C4FE2390E70001007244056182800D
:104E8000797122D60018232EA4FCAE87232AC4FCF5
:104E9000A30DF4FC231704FE231604FE8347B4FD80
:104EA000918393F7F70F2317F4FE8357E4FE05472A
:104EB000B317F7002316F4FE832744FD9DC3832711
:104EC000C4FD83D747001397070141838357C4FE6E
:104ED000D98F1397070141838327C4FD2392E700ED
:104EE00035A08327C4FD83D747001397070141836B
:104EF0008357C4FE93C7F7FFC207C183F98F139787
:104F0000070141838327C4FD2392E7000100325447
:104F100045618280011122CE00102326A4FEAE87B7
:104F20002322C4FE2315F4FE832744FE9DC383275A
:104F3000C4FE83D747001397070141838357A4FE1C
:104F4000D98F1397070141838327C4FE2392E7007B
:104F500035A08327C4FE83D74700139707014183F9
:104F60008357A4FE93C7F7FFC207C183F98F139736
:104F7000070141838327C4FE2392E70001007244A6
:104F800005618280011122CE00102326A4FEAE8787
:104F90002315F4FE8327C4FE0357A4FE2396E700DF
:104FA0000100724405618280011122CE0010232687
:104FB000A4FE8327C4FE83D7C700C207C1833E85F2
:104FC000724405618280011122CE00102326A4FEC6
:104FD000AE872315F4FE0357A4FEC1679387F7EF4E
:104FE0006302F7028327C4FE83D70700C207C18389
:104FF00093E707101397070141838327C4FE23908B
:10500000E70005A08327C4FE83D70700C207C1833A
:1050100093F7F7EF1397070141838327C4FE23908B
:10502000E7000100724405618280011122CE001068
:105030002326A4FE2324B4FE832784FE8DC3832766
:10504000C4FE83D74700C207C18393E74700139785
:10505000070141838327C4FE2392E70039A88327F1
:10506000C4FE83D74700C207C183ED9B1397070196
:1050700041838327C4FE2392E70001007244056147
:105080008280011122CE00102326A4FEAE872315B4
:10509000F4FE8327C4FE83D70700139707014183DB
:1050A000FD779387F77FF98F139707014183832754
:1050B000C4FE2390E7008327C4FE83D7070013971D
:1050C000070141838357A4FED98F139707014183BA
:1050D0008327C4FE2390E7000100724405618280AB
:1050E000011122CE00102326A4FE8327C4FE83D7FD
:1050F00007001397070141838567D98F139707012D
:1051000041838327C4FE2390E700010072440561B8
:105110008280011122CE00102326A4FE2324B4FE97
:10512000832784FE95C38327C4FE83D70700139784
:10513000070141838967D98F13970701418383272B
:10514000C4FE2390E70015A08327C4FE83D7070081
:10515000139707014183F977FD17F98F139707011B
:1051600041838327C4FE2390E70001007244056158
:105170008280797122D60018232EA4FCAE87A30D5D
:10518000F4FC231704FE0347B4FD85476309F700C9
:105190008327C4FD83D787012317F4FE39A0832713
:1051A000C4FD83D747012317F4FE8357E4FE3E85F1
:1051B000325445618280011122CE00102326A4FEC4
:1051C0008327C4FE83D70701C207C1833E8572448B
:1051D00005618280011122CE00102326A4FEAE8735
:1051E0002315F4FE0357A4FE91676313F702832788
:1051F000C4FE83D707001397070141839167D98FB6
:105200001397070141838327C4FE2390E70015A06D
:105210008327C4FE83D70700139707014183F177E3
:10522000FD17F98F1397070141838327C4FE23904D
:10523000E7000100724405618280797122D600186E
:10524000232EA4FCAE87231DF4FC232604FE832713
:10525000C4FD83D787001397070141838357A4FDBB
:10526000F98FC207C18389C785472326F4FE19A099
:10527000232604FE8327C4FE3E8532544561828086
:10528000011122CE00102326A4FEAE872315F4FEC2
:105290008357A4FE93C7F7FF139707014183832722
:1052A000C4FE2394E7000100724405618280797195
:1052B00022D60018232EA4FCAE87A30DF4FC2326CF
:1052C00004FE231504FE231404FE231304FE834767
:1052D000B4FDBD8B0547B317F7002315F4FE8347D4
:1052E000B4FD918393F7F70F2314F4FE835784FEE4
:1052F0000547B317F7002314F4FE8327C4FD83D7B3
:105300004700139707014183835784FEF98F2313C6
:10531000F4FE8327C4FD83D78700139707014183D9
:105320008357A4FEF98FC207C18381CB835764FEE4
:1053300089C785472326F4FE19A0232604FE832768
:10534000C4FE3E85325445618280797122D60018B0
:10535000232EA4FCAE87A30DF4FC231704FE834781
:10536000B4FDBD8B0547B317F7002317F4FE835731
:10537000E4FE93C7F7FF1397070141838327C4FD1A
:105380002394E7000100325445618280011106CE6A
:1053900022CC00102326A4FE0327C4FEB737014009
:1053A000938707C0631FF7008545856713850780CE
:1053B000EFF0AFFD8145856713850780EFF0EFFCC7
:1053C00081A00327C4FEB7070040631BF700854593
:1053D0000545EFF0EFFF81450545EFF06FFF0DA0AC
:1053E0000327C4FEB707004093870740631AF700FE
:1053F00085450945EFF0CFFD81450945EFF04FFDAB
:105400000100F240624405618280797122D6001861
:10541000232EA4FC232CB4FC231704FE8327C4FDF5
:1054200083D707002317F4FE0327C4FDB7370140D5
:10543000938707C06308F7000327C4FDB707004040
:105440006311F7028357E4FE93F7F7F82317F4FE8E
:10545000832784FD03D727008357E4FED98F2317C2
:10546000F4FE8357E4FE93F7F7CF2317F4FE832768
:1054700084FD03D767008357E4FED98F2317F4FE1A
:105480008327C4FD0357E4FE2390E700832784FDB0
:1054900003D747008327C4FD2396E702832784FDB3
:1054A00003D707008327C4FD2394E7020327C4FD25
:1054B000B7370140938707C06308F7000327C4FD8F
:1054C000B7070040631DF700832784FD83C787006B
:1054D0001397070141838327C4FD2398E70283279D
:1054E000C4FD0547239AE7000100325445618280DC
:1054F000797122D60018232EA4FC232CB4FC23158A
:1055000004FE231704FE231604FE8327C4FD83D75D
:105510000702C207C183F99B1397070141838327C1
:10552000C4FD2390E7028327C4FD83D70702231716
:10553000F4FE8327C4FD83D747002316F4FE832798
:10554000C4FD83D787012315F4FE8357A4FE93F788
:10555000F7F82315F4FE8357A4FEF19B2315F4FE00
:10556000832784FD03D707008357A4FED98F231513
:10557000F4FE8357E4FEF59B2317F4FE832784FD96
:1055800003D787008357E4FED98F2317F4FE8327C0
:1055900084FD03D727008357E4FED98F2317F4FE39
:1055A0000327C4FDB7370140938707C06308F7009E
:1055B0000327C4FDB7070040631CF7068357E4FECA
:1055C000DD9B2317F4FE832784FD03D7A7008357B1
:1055D000E4FED98F2317F4FE8357E4FEED9B2317D7
:1055E000F4FE832784FD03D747008357E4FED98F59
:1055F0002317F4FE8357C4FE93F7F7EF2316F4FE48
:105600008357C4FE93F7F7DF2316F4FE832784FD48
:1056100003D7C7008357C4FED98F2316F4FE832710
:1056200084FD03D7E7008357C4FED98F2316F4FE09
:105630008327C4FD0357C4FE2392E7008327C4FDDC
:105640000357A4FE239CE700832784FD03D767004C
:105650008327C4FD239AE7028327C4FD0357E4FE92
:105660002390E7020100325445618280797122D68D
:105670000018232EA4FC232CB4FC231504FE2317AE
:1056800004FE231604FE8327C4FD83D70702C20746
:10569000C183BD9B1397070141838327C4FD2390DA
:1056A000E7028327C4FD83D707022317F4FE83276D
:1056B000C4FD83D747002316F4FE8327C4FD83D798
:1056C00087012315F4FE0357A4FEE577FD17F98F34
:1056D0002315F4FE8357A4FE93F7F7CF2315F4FEAA
:1056E000832784FD83D70700A2071397070141830F
:1056F0008357A4FED98F2315F4FE8357E4FE93F756
:10570000F7FD2317F4FE832784FD83D787009207D4
:105710001397070141838357E4FED98F2317F4FEC3
:10572000832784FD83D727009207139707014183BE
:105730008357E4FED98F2317F4FE0327C4FDB73740
:105740000140938707C06308F7000327C4FDB7072C
:1057500000406310F70A8357E4FE93F7F7F7231727
:10576000F4FE832784FD83D7A700920713970701D0
:1057700041838357E4FED98F2317F4FE8357E4FE59
:1057800093F7F7FB2317F4FE832784FD83D74700A5
:1057900092071397070141838357E4FED98F23179C
:1057A000F4FE8357C4FE93F7F7BF2316F4FE0357A6
:1057B000C4FEFD779387F77FF98F2316F4FE8327C6
:1057C00084FD83D7C7008A07139707014183835756
:1057D000C4FED98F2316F4FE832784FD83D7E70008
:1057E0008A071397070141838357C4FED98F231675
:1057F000F4FE8327C4FD0357C4FE2392E7008327EA
:10580000C4FD0357A4FE239CE700832784FD03D730
:1058100067008327C4FD239CE7028327C4FD035749
:10582000E4FE2390E70201003254456182807971E1
:1058300022D60018232EA4FC232CB4FC231504FE2E
:10584000231704FE231604FE8327C4FD83D7070213
:10585000C207C18393F7F7EF1397070141838327AB
:10586000C4FD2390E7028327C4FD83D707022317D3
:10587000F4FE8327C4FD83D747002316F4FE832755
:10588000C4FD83D7C7012315F4FE8357A4FE93F705
:10589000F7F82315F4FE8357A4FEF19B2315F4FEBD
:1058A000832784FD03D707008357A4FED98F2315D0
:1058B000F4FE8357E4FE93F7F7DF2317F4FE832704
:1058C00084FD83D78700A20713970701418383577D
:1058D000E4FED98F2317F4FE832784FD83D72700A6
:1058E000A2071397070141838357E4FED98F23173B
:1058F000F4FE0327C4FDB7370140938707C0630850
:10590000F7000327C4FDB70700406312F70A0357E7
:10591000E4FEFD779387F77FF98F2317F4FE832743
:1059200084FD83D7A700A2071397070141838357FC
:10593000E4FED98F2317F4FE8357E4FE93F7F7BFF5
:105940002317F4FE832784FD83D74700A20713970C
:10595000070141838357E4FED98F2317F4FE0357D1
:10596000C4FEFD77FD17F98F2316F4FE0357C4FE1E
:10597000F977FD17F98F2316F4FE832784FD83D76B
:10598000C70092071397070141838357C4FED98F3D
:105990002316F4FE832784FD83D7E700920713972D
:1059A000070141838357C4FED98F2316F4FE832752
:1059B000C4FD0357C4FE2392E7008327C4FD0357A9
:1059C000A4FE239EE700832784FD03D76700832777
:1059D000C4FD239EE7028327C4FD0357E4FE239002
:1059E000E7020100325445618280797122D60018A5
:1059F000232EA4FC232CB4FC231604FE231504FE42
:105A0000231704FE8327C4FD83D7070213970701DA
:105A10004183FD77FD17F98F139707014183832792
:105A2000C4FD2390E7028327C4FD83D70702231513
:105A3000F4FE8327C4FD83D747002317F4FE832792
:105A4000C4FD83D7C7012316F4FE0357C4FEE577D0
:105A5000FD17F98F2316F4FE8357C4FE93F7F7CF93
:105A60002316F4FE832784FD83D70700A20713972C
:105A7000070141838357C4FED98F2316F4FE0357D1
:105A8000A4FEF977FD17F98F2315F4FE832784FD13
:105A900083D78700B2071397070141838357A4FE7A
:105AA000D98F2315F4FE832784FD83D72700B207FF
:105AB0001397070141838357A4FED98F2315F4FE62
:105AC0000327C4FDB7370140938707C06308F70079
:105AD0000327C4FDB70700406316F7020357E4FE2F
